{
  "contractName": "ExampleNFT",
  "abi": [
    {
      "inputs": [],
      "stateMutability": "nonpayable",
      "type": "constructor"
    },
    {
      "anonymous": false,
      "inputs": [
        {
          "indexed": true,
          "internalType": "address",
          "name": "owner",
          "type": "address"
        },
        {
          "indexed": true,
          "internalType": "address",
          "name": "approved",
          "type": "address"
        },
        {
          "indexed": true,
          "internalType": "uint256",
          "name": "tokenId",
          "type": "uint256"
        }
      ],
      "name": "Approval",
      "type": "event"
    },
    {
      "anonymous": false,
      "inputs": [
        {
          "indexed": true,
          "internalType": "address",
          "name": "owner",
          "type": "address"
        },
        {
          "indexed": true,
          "internalType": "address",
          "name": "operator",
          "type": "address"
        },
        {
          "indexed": false,
          "internalType": "bool",
          "name": "approved",
          "type": "bool"
        }
      ],
      "name": "ApprovalForAll",
      "type": "event"
    },
    {
      "anonymous": false,
      "inputs": [
        {
          "indexed": false,
          "internalType": "uint256",
          "name": "_fromTokenId",
          "type": "uint256"
        },
        {
          "indexed": false,
          "internalType": "uint256",
          "name": "_toTokenId",
          "type": "uint256"
        }
      ],
      "name": "BatchMetadataUpdate",
      "type": "event"
    },
    {
      "anonymous": false,
      "inputs": [
        {
          "indexed": false,
          "internalType": "uint256",
          "name": "_tokenId",
          "type": "uint256"
        }
      ],
      "name": "MetadataUpdate",
      "type": "event"
    },
    {
      "anonymous": false,
      "inputs": [
        {
          "indexed": true,
          "internalType": "address",
          "name": "previousOwner",
          "type": "address"
        },
        {
          "indexed": true,
          "internalType": "address",
          "name": "newOwner",
          "type": "address"
        }
      ],
      "name": "OwnershipTransferred",
      "type": "event"
    },
    {
      "anonymous": false,
      "inputs": [
        {
          "indexed": true,
          "internalType": "address",
          "name": "from",
          "type": "address"
        },
        {
          "indexed": true,
          "internalType": "address",
          "name": "to",
          "type": "address"
        },
        {
          "indexed": true,
          "internalType": "uint256",
          "name": "tokenId",
          "type": "uint256"
        }
      ],
      "name": "Transfer",
      "type": "event"
    },
    {
      "inputs": [
        {
          "internalType": "address",
          "name": "to",
          "type": "address"
        },
        {
          "internalType": "uint256",
          "name": "tokenId",
          "type": "uint256"
        }
      ],
      "name": "approve",
      "outputs": [],
      "stateMutability": "nonpayable",
      "type": "function"
    },
    {
      "inputs": [
        {
          "internalType": "address",
          "name": "owner",
          "type": "address"
        }
      ],
      "name": "balanceOf",
      "outputs": [
        {
          "internalType": "uint256",
          "name": "",
          "type": "uint256"
        }
      ],
      "stateMutability": "view",
      "type": "function"
    },
    {
      "inputs": [
        {
          "internalType": "uint256",
          "name": "tokenId",
          "type": "uint256"
        }
      ],
      "name": "getApproved",
      "outputs": [
        {
          "internalType": "address",
          "name": "",
          "type": "address"
        }
      ],
      "stateMutability": "view",
      "type": "function"
    },
    {
      "inputs": [
        {
          "internalType": "address",
          "name": "owner",
          "type": "address"
        },
        {
          "internalType": "address",
          "name": "operator",
          "type": "address"
        }
      ],
      "name": "isApprovedForAll",
      "outputs": [
        {
          "internalType": "bool",
          "name": "",
          "type": "bool"
        }
      ],
      "stateMutability": "view",
      "type": "function"
    },
    {
      "inputs": [],
      "name": "name",
      "outputs": [
        {
          "internalType": "string",
          "name": "",
          "type": "string"
        }
      ],
      "stateMutability": "view",
      "type": "function"
    },
    {
      "inputs": [],
      "name": "owner",
      "outputs": [
        {
          "internalType": "address",
          "name": "",
          "type": "address"
        }
      ],
      "stateMutability": "view",
      "type": "function"
    },
    {
      "inputs": [
        {
          "internalType": "uint256",
          "name": "tokenId",
          "type": "uint256"
        }
      ],
      "name": "ownerOf",
      "outputs": [
        {
          "internalType": "address",
          "name": "",
          "type": "address"
        }
      ],
      "stateMutability": "view",
      "type": "function"
    },
    {
      "inputs": [],
      "name": "renounceOwnership",
      "outputs": [],
      "stateMutability": "nonpayable",
      "type": "function"
    },
    {
      "inputs": [
        {
          "internalType": "address",
          "name": "from",
          "type": "address"
        },
        {
          "internalType": "address",
          "name": "to",
          "type": "address"
        },
        {
          "internalType": "uint256",
          "name": "tokenId",
          "type": "uint256"
        }
      ],
      "name": "safeTransferFrom",
      "outputs": [],
      "stateMutability": "nonpayable",
      "type": "function"
    },
    {
      "inputs": [
        {
          "internalType": "address",
          "name": "from",
          "type": "address"
        },
        {
          "internalType": "address",
          "name": "to",
          "type": "address"
        },
        {
          "internalType": "uint256",
          "name": "tokenId",
          "type": "uint256"
        },
        {
          "internalType": "bytes",
          "name": "data",
          "type": "bytes"
        }
      ],
      "name": "safeTransferFrom",
      "outputs": [],
      "stateMutability": "nonpayable",
      "type": "function"
    },
    {
      "inputs": [
        {
          "internalType": "address",
          "name": "operator",
          "type": "address"
        },
        {
          "internalType": "bool",
          "name": "approved",
          "type": "bool"
        }
      ],
      "name": "setApprovalForAll",
      "outputs": [],
      "stateMutability": "nonpayable",
      "type": "function"
    },
    {
      "inputs": [
        {
          "internalType": "bytes4",
          "name": "interfaceId",
          "type": "bytes4"
        }
      ],
      "name": "supportsInterface",
      "outputs": [
        {
          "internalType": "bool",
          "name": "",
          "type": "bool"
        }
      ],
      "stateMutability": "view",
      "type": "function"
    },
    {
      "inputs": [],
      "name": "symbol",
      "outputs": [
        {
          "internalType": "string",
          "name": "",
          "type": "string"
        }
      ],
      "stateMutability": "view",
      "type": "function"
    },
    {
      "inputs": [
        {
          "internalType": "uint256",
          "name": "tokenId",
          "type": "uint256"
        }
      ],
      "name": "tokenURI",
      "outputs": [
        {
          "internalType": "string",
          "name": "",
          "type": "string"
        }
      ],
      "stateMutability": "view",
      "type": "function"
    },
    {
      "inputs": [
        {
          "internalType": "address",
          "name": "from",
          "type": "address"
        },
        {
          "internalType": "address",
          "name": "to",
          "type": "address"
        },
        {
          "internalType": "uint256",
          "name": "tokenId",
          "type": "uint256"
        }
      ],
      "name": "transferFrom",
      "outputs": [],
      "stateMutability": "nonpayable",
      "type": "function"
    },
    {
      "inputs": [
        {
          "internalType": "address",
          "name": "newOwner",
          "type": "address"
        }
      ],
      "name": "transferOwnership",
      "outputs": [],
      "stateMutability": "nonpayable",
      "type": "function"
    },
    {
      "inputs": [
        {
          "internalType": "address",
          "name": "recipient",
          "type": "address"
        },
        {
          "internalType": "string",
          "name": "tokenURI",
          "type": "string"
        }
      ],
      "name": "mintNFT",
      "outputs": [
        {
          "internalType": "uint256",
          "name": "",
          "type": "uint256"
        }
      ],
      "stateMutability": "nonpayable",
      "type": "function"
    }
  ],
  "bytecode": "0x60806040523480156200001157600080fd5b506040518060400160405280600381526020017f4e465400000000000000000000000000000000000000000000000000000000008152506040518060400160405280600481526020017f454e465400000000000000000000000000000000000000000000000000000000815250816000908051906020019062000096929190620001a6565b508060019080519060200190620000af929190620001a6565b505050620000d2620000c6620000d860201b60201c565b620000e060201b60201c565b620002bb565b600033905090565b6000600760009054906101000a900473ffffffffffffffffffffffffffffffffffffffff16905081600760006101000a81548173ffffffffffffffffffffffffffffffffffffffff021916908373ffffffffffffffffffffffffffffffffffffffff1602179055508173ffffffffffffffffffffffffffffffffffffffff168173ffffffffffffffffffffffffffffffffffffffff167f8be0079c531659141344cd1fd0a4f28419497f9722a3daafe3b4186f6b6457e060405160405180910390a35050565b828054620001b49062000285565b90600052602060002090601f016020900481019282620001d8576000855562000224565b82601f10620001f357805160ff191683800117855562000224565b8280016001018555821562000224579182015b828111156200022357825182559160200191906001019062000206565b5b50905062000233919062000237565b5090565b5b808211156200025257600081600090555060010162000238565b5090565b7f4e487b7100000000000000000000000000000000000000000000000000000000600052602260045260246000fd5b600060028204905060018216806200029e57607f821691505b60208210811415620002b557620002b462000256565b5b50919050565b612c9980620002cb6000396000f3fe608060405234801561001057600080fd5b506004361061010b5760003560e01c8063715018a6116100a2578063b88d4fde11610071578063b88d4fde146102a4578063c87b56dd146102c0578063e985e9c5146102f0578063eacabe1414610320578063f2fde38b146103505761010b565b8063715018a6146102425780638da5cb5b1461024c57806395d89b411461026a578063a22cb465146102885761010b565b806323b872dd116100de57806323b872dd146101aa57806342842e0e146101c65780636352211e146101e257806370a08231146102125761010b565b806301ffc9a71461011057806306fdde0314610140578063081812fc1461015e578063095ea7b31461018e575b600080fd5b61012a60048036038101906101259190611cfe565b61036c565b6040516101379190611d46565b60405180910390f35b6101486103cd565b6040516101559190611dfa565b60405180910390f35b61017860048036038101906101739190611e52565b61045f565b6040516101859190611ec0565b60405180910390f35b6101a860048036038101906101a39190611f07565b6104a5565b005b6101c460048036038101906101bf9190611f47565b6105bd565b005b6101e060048036038101906101db9190611f47565b61061d565b005b6101fc60048036038101906101f79190611e52565b61063d565b6040516102099190611ec0565b60405180910390f35b61022c60048036038101906102279190611f9a565b6106c4565b6040516102399190611fd6565b60405180910390f35b61024a61077c565b005b610254610790565b6040516102619190611ec0565b60405180910390f35b6102726107ba565b60405161027f9190611dfa565b60405180910390f35b6102a2600480360381019061029d919061201d565b61084c565b005b6102be60048036038101906102b99190612192565b610862565b005b6102da60048036038101906102d59190611e52565b6108c4565b6040516102e79190611dfa565b60405180910390f35b61030a60048036038101906103059190612215565b6109d7565b6040516103179190611d46565b60405180910390f35b61033a600480360381019061033591906122f6565b610a6b565b6040516103479190611fd6565b60405180910390f35b61036a60048036038101906103659190611f9a565b610aab565b005b6000634906490660e01b7bffffffffffffffffffffffffffffffffffffffffffffffffffffffff1916827bffffffffffffffffffffffffffffffffffffffffffffffffffffffff191614806103c657506103c582610b2f565b5b9050919050565b6060600080546103dc90612381565b80601f016020809104026020016040519081016040528092919081815260200182805461040890612381565b80156104555780601f1061042a57610100808354040283529160200191610455565b820191906000526020600020905b81548152906001019060200180831161043857829003601f168201915b5050505050905090565b600061046a82610c11565b6004600083815260200190815260200160002060009054906101000a900473ffffffffffffffffffffffffffffffffffffffff169050919050565b60006104b08261063d565b90508073ffffffffffffffffffffffffffffffffffffffff168373ffffffffffffffffffffffffffffffffffffffff161415610521576040517f08c379a000000000000000000000000000000000000000000000000000000000815260040161051890612425565b60405180910390fd5b8073ffffffffffffffffffffffffffffffffffffffff16610540610c5c565b73ffffffffffffffffffffffffffffffffffffffff16148061056f575061056e81610569610c5c565b6109d7565b5b6105ae576040517f08c379a00000000000000000000000000000000000000000000000000000000081526004016105a5906124b7565b60405180910390fd5b6105b88383610c64565b505050565b6105ce6105c8610c5c565b82610d1d565b61060d576040517f08c379a000000000000000000000000000000000000000000000000000000000815260040161060490612549565b60405180910390fd5b610618838383610db2565b505050565b61063883838360405180602001604052806000815250610862565b505050565b600080610649836110ac565b9050600073ffffffffffffffffffffffffffffffffffffffff168173ffffffffffffffffffffffffffffffffffffffff1614156106bb576040517f08c379a00000000000000000000000000000000000000000000000000000000081526004016106b2906125b5565b60405180910390fd5b80915050919050565b60008073ffffffffffffffffffffffffffffffffffffffff168273ffffffffffffffffffffffffffffffffffffffff161415610735576040517f08c379a000000000000000000000000000000000000000000000000000000000815260040161072c90612647565b60405180910390fd5b600360008373ffffffffffffffffffffffffffffffffffffffff1673ffffffffffffffffffffffffffffffffffffffff168152602001908152602001600020549050919050565b6107846110e9565b61078e6000611167565b565b6000600760009054906101000a900473ffffffffffffffffffffffffffffffffffffffff16905090565b6060600180546107c990612381565b80601f01602080910402602001604051908101604052809291908181526020018280546107f590612381565b80156108425780601f1061081757610100808354040283529160200191610842565b820191906000526020600020905b81548152906001019060200180831161082557829003601f168201915b5050505050905090565b61085e610857610c5c565b838361122d565b5050565b61087361086d610c5c565b83610d1d565b6108b2576040517f08c379a00000000000000000000000000000000000000000000000000000000081526004016108a990612549565b60405180910390fd5b6108be8484848461139a565b50505050565b60606108cf82610c11565b60006006600084815260200190815260200160002080546108ef90612381565b80601f016020809104026020016040519081016040528092919081815260200182805461091b90612381565b80156109685780601f1061093d57610100808354040283529160200191610968565b820191906000526020600020905b81548152906001019060200180831161094b57829003601f168201915b5050505050905060006109796113f6565b905060008151141561098f5781925050506109d2565b6000825111156109c45780826040516020016109ac9291906126a3565b604051602081830303815290604052925050506109d2565b6109cd8461140d565b925050505b919050565b6000600560008473ffffffffffffffffffffffffffffffffffffffff1673ffffffffffffffffffffffffffffffffffffffff16815260200190815260200160002060008373ffffffffffffffffffffffffffffffffffffffff1673ffffffffffffffffffffffffffffffffffffffff16815260200190815260200160002060009054906101000a900460ff16905092915050565b6000610a756110e9565b610a7f6008611475565b6000610a8b600861148b565b9050610a978482611499565b610aa181846116b7565b8091505092915050565b610ab36110e9565b600073ffffffffffffffffffffffffffffffffffffffff168173ffffffffffffffffffffffffffffffffffffffff161415610b23576040517f08c379a0000000000000000000000000000000000000000000000000000000008152600401610b1a90612739565b60405180910390fd5b610b2c81611167565b50565b60007f80ac58cd000000000000000000000000000000000000000000000000000000007bffffffffffffffffffffffffffffffffffffffffffffffffffffffff1916827bffffffffffffffffffffffffffffffffffffffffffffffffffffffff19161480610bfa57507f5b5e139f000000000000000000000000000000000000000000000000000000007bffffffffffffffffffffffffffffffffffffffffffffffffffffffff1916827bffffffffffffffffffffffffffffffffffffffffffffffffffffffff1916145b80610c0a5750610c0982611762565b5b9050919050565b610c1a816117cc565b610c59576040517f08c379a0000000000000000000000000000000000000000000000000000000008152600401610c50906125b5565b60405180910390fd5b50565b600033905090565b816004600083815260200190815260200160002060006101000a81548173ffffffffffffffffffffffffffffffffffffffff021916908373ffffffffffffffffffffffffffffffffffffffff160217905550808273ffffffffffffffffffffffffffffffffffffffff16610cd78361063d565b73ffffffffffffffffffffffffffffffffffffffff167f8c5be1e5ebec7d5bd14f71427d1e84f3dd0314c0f7b2291e5b200ac8c7c3b92560405160405180910390a45050565b600080610d298361063d565b90508073ffffffffffffffffffffffffffffffffffffffff168473ffffffffffffffffffffffffffffffffffffffff161480610d6b5750610d6a81856109d7565b5b80610da957508373ffffffffffffffffffffffffffffffffffffffff16610d918461045f565b73ffffffffffffffffffffffffffffffffffffffff16145b91505092915050565b8273ffffffffffffffffffffffffffffffffffffffff16610dd28261063d565b73ffffffffffffffffffffffffffffffffffffffff1614610e28576040517f08c379a0000000000000000000000000000000000000000000000000000000008152600401610e1f906127cb565b60405180910390fd5b600073ffffffffffffffffffffffffffffffffffffffff168273ffffffffffffffffffffffffffffffffffffffff161415610e98576040517f08c379a0000000000000000000000000000000000000000000000000000000008152600401610e8f9061285d565b60405180910390fd5b610ea5838383600161180d565b8273ffffffffffffffffffffffffffffffffffffffff16610ec58261063d565b73ffffffffffffffffffffffffffffffffffffffff1614610f1b576040517f08c379a0000000000000000000000000000000000000000000000000000000008152600401610f12906127cb565b60405180910390fd5b6004600082815260200190815260200160002060006101000a81549073ffffffffffffffffffffffffffffffffffffffff02191690556001600360008573ffffffffffffffffffffffffffffffffffffffff1673ffffffffffffffffffffffffffffffffffffffff168152602001908152602001600020600082825403925050819055506001600360008473ffffffffffffffffffffffffffffffffffffffff1673ffffffffffffffffffffffffffffffffffffffff16815260200190815260200160002060008282540192505081905550816002600083815260200190815260200160002060006101000a81548173ffffffffffffffffffffffffffffffffffffffff021916908373ffffffffffffffffffffffffffffffffffffffff160217905550808273ffffffffffffffffffffffffffffffffffffffff168473ffffffffffffffffffffffffffffffffffffffff167fddf252ad1be2c89b69c2b068fc378daa952ba7f163c4a11628f55a4df523b3ef60405160405180910390a46110a78383836001611813565b505050565b60006002600083815260200190815260200160002060009054906101000a900473ffffffffffffffffffffffffffffffffffffffff169050919050565b6110f1610c5c565b73ffffffffffffffffffffffffffffffffffffffff1661110f610790565b73ffffffffffffffffffffffffffffffffffffffff1614611165576040517f08c379a000000000000000000000000000000000000000000000000000000000815260040161115c906128c9565b60405180910390fd5b565b6000600760009054906101000a900473ffffffffffffffffffffffffffffffffffffffff16905081600760006101000a81548173ffffffffffffffffffffffffffffffffffffffff021916908373ffffffffffffffffffffffffffffffffffffffff1602179055508173ffffffffffffffffffffffffffffffffffffffff168173ffffffffffffffffffffffffffffffffffffffff167f8be0079c531659141344cd1fd0a4f28419497f9722a3daafe3b4186f6b6457e060405160405180910390a35050565b8173ffffffffffffffffffffffffffffffffffffffff168373ffffffffffffffffffffffffffffffffffffffff16141561129c576040517f08c379a000000000000000000000000000000000000000000000000000000000815260040161129390612935565b60405180910390fd5b80600560008573ffffffffffffffffffffffffffffffffffffffff1673ffffffffffffffffffffffffffffffffffffffff16815260200190815260200160002060008473ffffffffffffffffffffffffffffffffffffffff1673ffffffffffffffffffffffffffffffffffffffff16815260200190815260200160002060006101000a81548160ff0219169083151502179055508173ffffffffffffffffffffffffffffffffffffffff168373ffffffffffffffffffffffffffffffffffffffff167f17307eab39ab6107e8899845ad3d59bd9653f200f220920489ca2b5937696c318360405161138d9190611d46565b60405180910390a3505050565b6113a5848484610db2565b6113b184848484611819565b6113f0576040517f08c379a00000000000000000000000000000000000000000000000000000000081526004016113e7906129c7565b60405180910390fd5b50505050565b606060405180602001604052806000815250905090565b606061141882610c11565b60006114226113f6565b90506000815111611442576040518060200160405280600081525061146d565b8061144c846119a1565b60405160200161145d9291906126a3565b6040516020818303038152906040525b915050919050565b6001816000016000828254019250508190555050565b600081600001549050919050565b600073ffffffffffffffffffffffffffffffffffffffff168273ffffffffffffffffffffffffffffffffffffffff161415611509576040517f08c379a000000000000000000000000000000000000000000000000000000000815260040161150090612a33565b60405180910390fd5b611512816117cc565b15611552576040517f08c379a000000000000000000000000000000000000000000000000000000000815260040161154990612a9f565b60405180910390fd5b61156060008383600161180d565b611569816117cc565b156115a9576040517f08c379a00000000000000000000000000000000000000000000000000000000081526004016115a090612a9f565b60405180910390fd5b6001600360008473ffffffffffffffffffffffffffffffffffffffff1673ffffffffffffffffffffffffffffffffffffffff16815260200190815260200160002060008282540192505081905550816002600083815260200190815260200160002060006101000a81548173ffffffffffffffffffffffffffffffffffffffff021916908373ffffffffffffffffffffffffffffffffffffffff160217905550808273ffffffffffffffffffffffffffffffffffffffff16600073ffffffffffffffffffffffffffffffffffffffff167fddf252ad1be2c89b69c2b068fc378daa952ba7f163c4a11628f55a4df523b3ef60405160405180910390a46116b3600083836001611813565b5050565b6116c0826117cc565b6116ff576040517f08c379a00000000000000000000000000000000000000000000000000000000081526004016116f690612b31565b60405180910390fd5b80600660008481526020019081526020016000209080519060200190611726929190611bef565b507ff8e1a15aba9398e019f0b49df1a4fde98ee17ae345cb5f6b5e2c27f5033e8ce7826040516117569190611fd6565b60405180910390a15050565b60007f01ffc9a7000000000000000000000000000000000000000000000000000000007bffffffffffffffffffffffffffffffffffffffffffffffffffffffff1916827bffffffffffffffffffffffffffffffffffffffffffffffffffffffff1916149050919050565b60008073ffffffffffffffffffffffffffffffffffffffff166117ee836110ac565b73ffffffffffffffffffffffffffffffffffffffff1614159050919050565b50505050565b50505050565b600061183a8473ffffffffffffffffffffffffffffffffffffffff16611a79565b15611994578373ffffffffffffffffffffffffffffffffffffffff1663150b7a02611863610c5c565b8786866040518563ffffffff1660e01b81526004016118859493929190612ba6565b6020604051808303816000875af19250505080156118c157506040513d601f19601f820116820180604052508101906118be9190612c07565b60015b611944573d80600081146118f1576040519150601f19603f3d011682016040523d82523d6000602084013e6118f6565b606091505b5060008151141561193c576040517f08c379a0000000000000000000000000000000000000000000000000000000008152600401611933906129c7565b60405180910390fd5b805181602001fd5b63150b7a0260e01b7bffffffffffffffffffffffffffffffffffffffffffffffffffffffff1916817bffffffffffffffffffffffffffffffffffffffffffffffffffffffff191614915050611999565b600190505b949350505050565b6060600060016119b084611a9c565b01905060008167ffffffffffffffff8111156119cf576119ce612067565b5b6040519080825280601f01601f191660200182016040528015611a015781602001600182028036833780820191505090505b509050600082602001820190505b600115611a6e578080600190039150507f3031323334353637383961626364656600000000000000000000000000000000600a86061a8153600a8581611a5857611a57612c34565b5b0494506000851415611a6957611a6e565b611a0f565b819350505050919050565b6000808273ffffffffffffffffffffffffffffffffffffffff163b119050919050565b600080600090507a184f03e93ff9f4daa797ed6e38ed64bf6a1f0100000000000000008310611afa577a184f03e93ff9f4daa797ed6e38ed64bf6a1f0100000000000000008381611af057611aef612c34565b5b0492506040810190505b6d04ee2d6d415b85acef81000000008310611b37576d04ee2d6d415b85acef81000000008381611b2d57611b2c612c34565b5b0492506020810190505b662386f26fc100008310611b6657662386f26fc100008381611b5c57611b5b612c34565b5b0492506010810190505b6305f5e1008310611b8f576305f5e1008381611b8557611b84612c34565b5b0492506008810190505b6127108310611bb4576127108381611baa57611ba9612c34565b5b0492506004810190505b60648310611bd75760648381611bcd57611bcc612c34565b5b0492506002810190505b600a8310611be6576001810190505b80915050919050565b828054611bfb90612381565b90600052602060002090601f016020900481019282611c1d5760008555611c64565b82601f10611c3657805160ff1916838001178555611c64565b82800160010185558215611c64579182015b82811115611c63578251825591602001919060010190611c48565b5b509050611c719190611c75565b5090565b5b80821115611c8e576000816000905550600101611c76565b5090565b6000604051905090565b600080fd5b600080fd5b60007fffffffff0000000000000000000000000000000000000000000000000000000082169050919050565b611cdb81611ca6565b8114611ce657600080fd5b50565b600081359050611cf881611cd2565b92915050565b600060208284031215611d1457611d13611c9c565b5b6000611d2284828501611ce9565b91505092915050565b60008115159050919050565b611d4081611d2b565b82525050565b6000602082019050611d5b6000830184611d37565b92915050565b600081519050919050565b600082825260208201905092915050565b60005b83811015611d9b578082015181840152602081019050611d80565b83811115611daa576000848401525b50505050565b6000601f19601f8301169050919050565b6000611dcc82611d61565b611dd68185611d6c565b9350611de6818560208601611d7d565b611def81611db0565b840191505092915050565b60006020820190508181036000830152611e148184611dc1565b905092915050565b6000819050919050565b611e2f81611e1c565b8114611e3a57600080fd5b50565b600081359050611e4c81611e26565b92915050565b600060208284031215611e6857611e67611c9c565b5b6000611e7684828501611e3d565b91505092915050565b600073ffffffffffffffffffffffffffffffffffffffff82169050919050565b6000611eaa82611e7f565b9050919050565b611eba81611e9f565b82525050565b6000602082019050611ed56000830184611eb1565b92915050565b611ee481611e9f565b8114611eef57600080fd5b50565b600081359050611f0181611edb565b92915050565b60008060408385031215611f1e57611f1d611c9c565b5b6000611f2c85828601611ef2565b9250506020611f3d85828601611e3d565b9150509250929050565b600080600060608486031215611f6057611f5f611c9c565b5b6000611f6e86828701611ef2565b9350506020611f7f86828701611ef2565b9250506040611f9086828701611e3d565b9150509250925092565b600060208284031215611fb057611faf611c9c565b5b6000611fbe84828501611ef2565b91505092915050565b611fd081611e1c565b82525050565b6000602082019050611feb6000830184611fc7565b92915050565b611ffa81611d2b565b811461200557600080fd5b50565b60008135905061201781611ff1565b92915050565b6000806040838503121561203457612033611c9c565b5b600061204285828601611ef2565b925050602061205385828601612008565b9150509250929050565b600080fd5b600080fd5b7f4e487b7100000000000000000000000000000000000000000000000000000000600052604160045260246000fd5b61209f82611db0565b810181811067ffffffffffffffff821117156120be576120bd612067565b5b80604052505050565b60006120d1611c92565b90506120dd8282612096565b919050565b600067ffffffffffffffff8211156120fd576120fc612067565b5b61210682611db0565b9050602081019050919050565b82818337600083830152505050565b6000612135612130846120e2565b6120c7565b90508281526020810184848401111561215157612150612062565b5b61215c848285612113565b509392505050565b600082601f8301126121795761217861205d565b5b8135612189848260208601612122565b91505092915050565b600080600080608085870312156121ac576121ab611c9c565b5b60006121ba87828801611ef2565b94505060206121cb87828801611ef2565b93505060406121dc87828801611e3d565b925050606085013567ffffffffffffffff8111156121fd576121fc611ca1565b5b61220987828801612164565b91505092959194509250565b6000806040838503121561222c5761222b611c9c565b5b600061223a85828601611ef2565b925050602061224b85828601611ef2565b9150509250929050565b600067ffffffffffffffff8211156122705761226f612067565b5b61227982611db0565b9050602081019050919050565b600061229961229484612255565b6120c7565b9050828152602081018484840111156122b5576122b4612062565b5b6122c0848285612113565b509392505050565b600082601f8301126122dd576122dc61205d565b5b81356122ed848260208601612286565b91505092915050565b6000806040838503121561230d5761230c611c9c565b5b600061231b85828601611ef2565b925050602083013567ffffffffffffffff81111561233c5761233b611ca1565b5b612348858286016122c8565b9150509250929050565b7f4e487b7100000000000000000000000000000000000000000000000000000000600052602260045260246000fd5b6000600282049050600182168061239957607f821691505b602082108114156123ad576123ac612352565b5b50919050565b7f4552433732313a20617070726f76616c20746f2063757272656e74206f776e6560008201527f7200000000000000000000000000000000000000000000000000000000000000602082015250565b600061240f602183611d6c565b915061241a826123b3565b604082019050919050565b6000602082019050818103600083015261243e81612402565b9050919050565b7f4552433732313a20617070726f76652063616c6c6572206973206e6f7420746f60008201527f6b656e206f776e6572206f7220617070726f76656420666f7220616c6c000000602082015250565b60006124a1603d83611d6c565b91506124ac82612445565b604082019050919050565b600060208201905081810360008301526124d081612494565b9050919050565b7f4552433732313a2063616c6c6572206973206e6f7420746f6b656e206f776e6560008201527f72206f7220617070726f76656400000000000000000000000000000000000000602082015250565b6000612533602d83611d6c565b915061253e826124d7565b604082019050919050565b6000602082019050818103600083015261256281612526565b9050919050565b7f4552433732313a20696e76616c696420746f6b656e2049440000000000000000600082015250565b600061259f601883611d6c565b91506125aa82612569565b602082019050919050565b600060208201905081810360008301526125ce81612592565b9050919050565b7f4552433732313a2061646472657373207a65726f206973206e6f74206120766160008201527f6c6964206f776e65720000000000000000000000000000000000000000000000602082015250565b6000612631602983611d6c565b915061263c826125d5565b604082019050919050565b6000602082019050818103600083015261266081612624565b9050919050565b600081905092915050565b600061267d82611d61565b6126878185612667565b9350612697818560208601611d7d565b80840191505092915050565b60006126af8285612672565b91506126bb8284612672565b91508190509392505050565b7f4f776e61626c653a206e6577206f776e657220697320746865207a65726f206160008201527f6464726573730000000000000000000000000000000000000000000000000000602082015250565b6000612723602683611d6c565b915061272e826126c7565b604082019050919050565b6000602082019050818103600083015261275281612716565b9050919050565b7f4552433732313a207472616e736665722066726f6d20696e636f72726563742060008201527f6f776e6572000000000000000000000000000000000000000000000000000000602082015250565b60006127b5602583611d6c565b91506127c082612759565b604082019050919050565b600060208201905081810360008301526127e4816127a8565b9050919050565b7f4552433732313a207472616e7366657220746f20746865207a65726f2061646460008201527f7265737300000000000000000000000000000000000000000000000000000000602082015250565b6000612847602483611d6c565b9150612852826127eb565b604082019050919050565b600060208201905081810360008301526128768161283a565b9050919050565b7f4f776e61626c653a2063616c6c6572206973206e6f7420746865206f776e6572600082015250565b60006128b3602083611d6c565b91506128be8261287d565b602082019050919050565b600060208201905081810360008301526128e2816128a6565b9050919050565b7f4552433732313a20617070726f766520746f2063616c6c657200000000000000600082015250565b600061291f601983611d6c565b915061292a826128e9565b602082019050919050565b6000602082019050818103600083015261294e81612912565b9050919050565b7f4552433732313a207472616e7366657220746f206e6f6e20455243373231526560008201527f63656976657220696d706c656d656e7465720000000000000000000000000000602082015250565b60006129b1603283611d6c565b91506129bc82612955565b604082019050919050565b600060208201905081810360008301526129e0816129a4565b9050919050565b7f4552433732313a206d696e7420746f20746865207a65726f2061646472657373600082015250565b6000612a1d602083611d6c565b9150612a28826129e7565b602082019050919050565b60006020820190508181036000830152612a4c81612a10565b9050919050565b7f4552433732313a20746f6b656e20616c7265616479206d696e74656400000000600082015250565b6000612a89601c83611d6c565b9150612a9482612a53565b602082019050919050565b60006020820190508181036000830152612ab881612a7c565b9050919050565b7f45524337323155524953746f726167653a2055524920736574206f66206e6f6e60008201527f6578697374656e7420746f6b656e000000000000000000000000000000000000602082015250565b6000612b1b602e83611d6c565b9150612b2682612abf565b604082019050919050565b60006020820190508181036000830152612b4a81612b0e565b9050919050565b600081519050919050565b600082825260208201905092915050565b6000612b7882612b51565b612b828185612b5c565b9350612b92818560208601611d7d565b612b9b81611db0565b840191505092915050565b6000608082019050612bbb6000830187611eb1565b612bc86020830186611eb1565b612bd56040830185611fc7565b8181036060830152612be78184612b6d565b905095945050505050565b600081519050612c0181611cd2565b92915050565b600060208284031215612c1d57612c1c611c9c565b5b6000612c2b84828501612bf2565b91505092915050565b7f4e487b7100000000000000000000000000000000000000000000000000000000600052601260045260246000fdfea264697066735822122030c8c20e410b72413df0f93af06da1284c47177132b458d77a013b6ab91fd9e164736f6c634300080b0033",
  "immutableReferences": {},
  "source": "// Contract based on https://docs.openzeppelin.com/contracts/4.x/erc721\r\n// SPDX-License-Identifier: MIT\r\npragma solidity ^0.8.11;\r\n\r\nimport \"@openzeppelin/contracts/token/ERC721/ERC721.sol\";\r\nimport \"@openzeppelin/contracts/token/ERC721/extensions/ERC721URIStorage.sol\";\r\nimport \"@openzeppelin/contracts/utils/Counters.sol\";\r\nimport \"@openzeppelin/contracts/access/Ownable.sol\";\r\n\r\ncontract ExampleNFT is ERC721URIStorage, Ownable {\r\n   using Counters for Counters.Counter;\r\n   Counters.Counter private _tokenIds;\r\n\r\n   constructor() ERC721(\"NFT\", \"ENFT\") {}\r\n\r\n   function mintNFT(address recipient, string memory tokenURI)\r\n       public onlyOwner\r\n       returns (uint256)\r\n   {\r\n       _tokenIds.increment();\r\n\r\n       uint256 newItemId = _tokenIds.current();\r\n       _mint(recipient, newItemId);\r\n       _setTokenURI(newItemId, tokenURI);\r\n\r\n       return newItemId;\r\n   }\r\n}\r\n",
  "sourcePath": "C:\\Users\\beans\\Documents\\projects\\Main Projects\\Modern-Toy\\src\\contracts\\ExampleNFT.sol",
  "compiler": {
    "name": "solc",
    "version": "0.8.11+commit.d7f03943.Emscripten.clang"
  },
  "schemaVersion": "3.4.11",
  "updatedAt": "2025-10-09T10:13:54.786Z",
  "devdoc": {
    "kind": "dev",
    "methods": {
      "approve(address,uint256)": {
        "details": "See {IERC721-approve}."
      },
      "balanceOf(address)": {
        "details": "See {IERC721-balanceOf}."
      },
      "getApproved(uint256)": {
        "details": "See {IERC721-getApproved}."
      },
      "isApprovedForAll(address,address)": {
        "details": "See {IERC721-isApprovedForAll}."
      },
      "name()": {
        "details": "See {IERC721Metadata-name}."
      },
      "owner()": {
        "details": "Returns the address of the current owner."
      },
      "ownerOf(uint256)": {
        "details": "See {IERC721-ownerOf}."
      },
      "renounceOwnership()": {
        "details": "Leaves the contract without owner. It will not be possible to call `onlyOwner` functions. Can only be called by the current owner. NOTE: Renouncing ownership will leave the contract without an owner, thereby disabling any functionality that is only available to the owner."
      },
      "safeTransferFrom(address,address,uint256)": {
        "details": "See {IERC721-safeTransferFrom}."
      },
      "safeTransferFrom(address,address,uint256,bytes)": {
        "details": "See {IERC721-safeTransferFrom}."
      },
      "setApprovalForAll(address,bool)": {
        "details": "See {IERC721-setApprovalForAll}."
      },
      "supportsInterface(bytes4)": {
        "details": "See {IERC165-supportsInterface}"
      },
      "symbol()": {
        "details": "See {IERC721Metadata-symbol}."
      },
      "tokenURI(uint256)": {
        "details": "See {IERC721Metadata-tokenURI}."
      },
      "transferFrom(address,address,uint256)": {
        "details": "See {IERC721-transferFrom}."
      },
      "transferOwnership(address)": {
        "details": "Transfers ownership of the contract to a new account (`newOwner`). Can only be called by the current owner."
      }
    },
    "version": 1
  },
  "userdoc": {
    "kind": "user",
    "methods": {},
    "version": 1
  }
}